{
  "_format": "hh-sol-artifact-1",
  "contractName": "Devparty",
  "sourceName": "contracts/Devparty.sol",
  "abi": [
    {
      "inputs": [],
      "stateMutability": "nonpayable",
      "type": "constructor"
    },
    {
      "anonymous": false,
      "inputs": [
        {
          "indexed": true,
          "internalType": "address",
          "name": "account",
          "type": "address"
        },
        {
          "indexed": true,
          "internalType": "address",
          "name": "operator",
          "type": "address"
        },
        {
          "indexed": false,
          "internalType": "bool",
          "name": "approved",
          "type": "bool"
        }
      ],
      "name": "ApprovalForAll",
      "type": "event"
    },
    {
      "anonymous": false,
      "inputs": [
        {
          "indexed": true,
          "internalType": "address",
          "name": "previousOwner",
          "type": "address"
        },
        {
          "indexed": true,
          "internalType": "address",
          "name": "newOwner",
          "type": "address"
        }
      ],
      "name": "OwnershipTransferred",
      "type": "event"
    },
    {
      "anonymous": false,
      "inputs": [
        {
          "indexed": true,
          "internalType": "address",
          "name": "operator",
          "type": "address"
        },
        {
          "indexed": true,
          "internalType": "address",
          "name": "from",
          "type": "address"
        },
        {
          "indexed": true,
          "internalType": "address",
          "name": "to",
          "type": "address"
        },
        {
          "indexed": false,
          "internalType": "uint256[]",
          "name": "ids",
          "type": "uint256[]"
        },
        {
          "indexed": false,
          "internalType": "uint256[]",
          "name": "values",
          "type": "uint256[]"
        }
      ],
      "name": "TransferBatch",
      "type": "event"
    },
    {
      "anonymous": false,
      "inputs": [
        {
          "indexed": true,
          "internalType": "address",
          "name": "operator",
          "type": "address"
        },
        {
          "indexed": true,
          "internalType": "address",
          "name": "from",
          "type": "address"
        },
        {
          "indexed": true,
          "internalType": "address",
          "name": "to",
          "type": "address"
        },
        {
          "indexed": false,
          "internalType": "uint256",
          "name": "id",
          "type": "uint256"
        },
        {
          "indexed": false,
          "internalType": "uint256",
          "name": "value",
          "type": "uint256"
        }
      ],
      "name": "TransferSingle",
      "type": "event"
    },
    {
      "anonymous": false,
      "inputs": [
        {
          "indexed": false,
          "internalType": "string",
          "name": "value",
          "type": "string"
        },
        {
          "indexed": true,
          "internalType": "uint256",
          "name": "id",
          "type": "uint256"
        }
      ],
      "name": "URI",
      "type": "event"
    },
    {
      "inputs": [
        {
          "internalType": "address",
          "name": "account",
          "type": "address"
        },
        {
          "internalType": "uint256",
          "name": "id",
          "type": "uint256"
        }
      ],
      "name": "balanceOf",
      "outputs": [
        {
          "internalType": "uint256",
          "name": "",
          "type": "uint256"
        }
      ],
      "stateMutability": "view",
      "type": "function"
    },
    {
      "inputs": [
        {
          "internalType": "address[]",
          "name": "accounts",
          "type": "address[]"
        },
        {
          "internalType": "uint256[]",
          "name": "ids",
          "type": "uint256[]"
        }
      ],
      "name": "balanceOfBatch",
      "outputs": [
        {
          "internalType": "uint256[]",
          "name": "",
          "type": "uint256[]"
        }
      ],
      "stateMutability": "view",
      "type": "function"
    },
    {
      "inputs": [],
      "name": "contractURI",
      "outputs": [
        {
          "internalType": "string",
          "name": "",
          "type": "string"
        }
      ],
      "stateMutability": "pure",
      "type": "function"
    },
    {
      "inputs": [
        {
          "internalType": "uint256",
          "name": "id",
          "type": "uint256"
        }
      ],
      "name": "exists",
      "outputs": [
        {
          "internalType": "bool",
          "name": "",
          "type": "bool"
        }
      ],
      "stateMutability": "view",
      "type": "function"
    },
    {
      "inputs": [
        {
          "internalType": "address",
          "name": "account",
          "type": "address"
        },
        {
          "internalType": "address",
          "name": "operator",
          "type": "address"
        }
      ],
      "name": "isApprovedForAll",
      "outputs": [
        {
          "internalType": "bool",
          "name": "",
          "type": "bool"
        }
      ],
      "stateMutability": "view",
      "type": "function"
    },
    {
      "inputs": [
        {
          "internalType": "address",
          "name": "recipient",
          "type": "address"
        },
        {
          "internalType": "uint256",
          "name": "amount",
          "type": "uint256"
        },
        {
          "internalType": "string",
          "name": "uri",
          "type": "string"
        }
      ],
      "name": "issueToken",
      "outputs": [
        {
          "internalType": "uint256",
          "name": "",
          "type": "uint256"
        }
      ],
      "stateMutability": "nonpayable",
      "type": "function"
    },
    {
      "inputs": [],
      "name": "owner",
      "outputs": [
        {
          "internalType": "address",
          "name": "",
          "type": "address"
        }
      ],
      "stateMutability": "view",
      "type": "function"
    },
    {
      "inputs": [],
      "name": "renounceOwnership",
      "outputs": [],
      "stateMutability": "nonpayable",
      "type": "function"
    },
    {
      "inputs": [
        {
          "internalType": "address",
          "name": "from",
          "type": "address"
        },
        {
          "internalType": "address",
          "name": "to",
          "type": "address"
        },
        {
          "internalType": "uint256[]",
          "name": "ids",
          "type": "uint256[]"
        },
        {
          "internalType": "uint256[]",
          "name": "amounts",
          "type": "uint256[]"
        },
        {
          "internalType": "bytes",
          "name": "data",
          "type": "bytes"
        }
      ],
      "name": "safeBatchTransferFrom",
      "outputs": [],
      "stateMutability": "nonpayable",
      "type": "function"
    },
    {
      "inputs": [
        {
          "internalType": "address",
          "name": "from",
          "type": "address"
        },
        {
          "internalType": "address",
          "name": "to",
          "type": "address"
        },
        {
          "internalType": "uint256",
          "name": "id",
          "type": "uint256"
        },
        {
          "internalType": "uint256",
          "name": "amount",
          "type": "uint256"
        },
        {
          "internalType": "bytes",
          "name": "data",
          "type": "bytes"
        }
      ],
      "name": "safeTransferFrom",
      "outputs": [],
      "stateMutability": "nonpayable",
      "type": "function"
    },
    {
      "inputs": [
        {
          "internalType": "address",
          "name": "operator",
          "type": "address"
        },
        {
          "internalType": "bool",
          "name": "approved",
          "type": "bool"
        }
      ],
      "name": "setApprovalForAll",
      "outputs": [],
      "stateMutability": "nonpayable",
      "type": "function"
    },
    {
      "inputs": [
        {
          "internalType": "address payable",
          "name": "recipient",
          "type": "address"
        }
      ],
      "name": "sponsorUser",
      "outputs": [],
      "stateMutability": "payable",
      "type": "function"
    },
    {
      "inputs": [
        {
          "internalType": "bytes4",
          "name": "interfaceId",
          "type": "bytes4"
        }
      ],
      "name": "supportsInterface",
      "outputs": [
        {
          "internalType": "bool",
          "name": "",
          "type": "bool"
        }
      ],
      "stateMutability": "view",
      "type": "function"
    },
    {
      "inputs": [
        {
          "internalType": "uint256",
          "name": "tokenId",
          "type": "uint256"
        }
      ],
      "name": "tokenURI",
      "outputs": [
        {
          "internalType": "string",
          "name": "",
          "type": "string"
        }
      ],
      "stateMutability": "view",
      "type": "function"
    },
    {
      "inputs": [
        {
          "internalType": "uint256",
          "name": "id",
          "type": "uint256"
        }
      ],
      "name": "totalSupply",
      "outputs": [
        {
          "internalType": "uint256",
          "name": "",
          "type": "uint256"
        }
      ],
      "stateMutability": "view",
      "type": "function"
    },
    {
      "inputs": [
        {
          "internalType": "address",
          "name": "newOwner",
          "type": "address"
        }
      ],
      "name": "transferOwnership",
      "outputs": [],
      "stateMutability": "nonpayable",
      "type": "function"
    },
    {
      "inputs": [
        {
          "internalType": "uint256",
          "name": "",
          "type": "uint256"
        }
      ],
      "name": "uri",
      "outputs": [
        {
          "internalType": "string",
          "name": "",
          "type": "string"
        }
      ],
      "stateMutability": "view",
      "type": "function"
    }
  ],
  "bytecode": "0x60806040523480156200001157600080fd5b506040805160208101909152600081526200002c3362000043565b620000378162000093565b5060016005556200018f565b600080546001600160a01b038381166001600160a01b0319831681178455604051919092169283917f8be0079c531659141344cd1fd0a4f28419497f9722a3daafe3b4186f6b6457e09190a35050565b8051620000a8906003906020840190620000ac565b5050565b828054620000ba9062000152565b90600052602060002090601f016020900481019282620000de576000855562000129565b82601f10620000f957805160ff191683800117855562000129565b8280016001018555821562000129579182015b82811115620001295782518255916020019190600101906200010c565b50620001379291506200013b565b5090565b5b808211156200013757600081556001016200013c565b600181811c908216806200016757607f821691505b602082108114156200018957634e487b7160e01b600052602260045260246000fd5b50919050565b611d5b806200019f6000396000f3fe6080604052600436106100fd5760003560e01c80638da5cb5b11610095578063d1e6579011610064578063d1e65790146102da578063e8a3d485146102ed578063e985e9c514610302578063f242432a1461034b578063f2fde38b1461036b57600080fd5b80638da5cb5b14610245578063a22cb4651461026d578063bd85b0391461028d578063c87b56dd146102ba57600080fd5b80634e1273f4116100d15780634e1273f4146101b45780634f558e79146101e1578063715018a61461021057806376abafdc1461022557600080fd5b8062fdd58e1461010257806301ffc9a7146101355780630e89341c146101655780632eb2c2d614610192575b600080fd5b34801561010e57600080fd5b5061012261011d366004611455565b61038b565b6040519081526020015b60405180910390f35b34801561014157600080fd5b50610155610150366004611497565b610424565b604051901515815260200161012c565b34801561017157600080fd5b506101856101803660046114bb565b610476565b60405161012c9190611521565b34801561019e57600080fd5b506101b26101ad36600461168a565b61050a565b005b3480156101c057600080fd5b506101d46101cf366004611738565b6105a1565b60405161012c9190611840565b3480156101ed57600080fd5b506101556101fc3660046114bb565b600090815260046020526040902054151590565b34801561021c57600080fd5b506101b26106cb565b34801561023157600080fd5b50610122610240366004611853565b610731565b34801561025157600080fd5b506000546040516001600160a01b03909116815260200161012c565b34801561027957600080fd5b506101b26102883660046118c0565b610825565b34801561029957600080fd5b506101226102a83660046114bb565b60009081526004602052604090205490565b3480156102c657600080fd5b506101856102d53660046114bb565b6108fc565b6101b26102e83660046118fe565b6109f9565b3480156102f957600080fd5b50610185610a32565b34801561030e57600080fd5b5061015561031d36600461191b565b6001600160a01b03918216600090815260026020908152604080832093909416825291909152205460ff1690565b34801561035757600080fd5b506101b2610366366004611949565b610a52565b34801561037757600080fd5b506101b26103863660046118fe565b610ad9565b60006001600160a01b0383166103fc5760405162461bcd60e51b815260206004820152602b60248201527f455243313135353a2062616c616e636520717565727920666f7220746865207a60448201526a65726f206164647265737360a81b60648201526084015b60405180910390fd5b5060009081526001602090815260408083206001600160a01b03949094168352929052205490565b60006001600160e01b03198216636cdb3d1360e11b148061045557506001600160e01b031982166303a24d0760e21b145b8061047057506301ffc9a760e01b6001600160e01b03198316145b92915050565b606060038054610485906119b2565b80601f01602080910402602001604051908101604052809291908181526020018280546104b1906119b2565b80156104fe5780601f106104d3576101008083540402835291602001916104fe565b820191906000526020600020905b8154815290600101906020018083116104e157829003601f168201915b50505050509050919050565b6001600160a01b0385163314806105265750610526853361031d565b61058d5760405162461bcd60e51b815260206004820152603260248201527f455243313135353a207472616e736665722063616c6c6572206973206e6f74206044820152711bdddb995c881b9bdc88185c1c1c9bdd995960721b60648201526084016103f3565b61059a8585858585610ba4565b5050505050565b606081518351146106065760405162461bcd60e51b815260206004820152602960248201527f455243313135353a206163636f756e747320616e6420696473206c656e677468604482015268040dad2e6dac2e8c6d60bb1b60648201526084016103f3565b6000835167ffffffffffffffff81111561062257610622611534565b60405190808252806020026020018201604052801561064b578160200160208202803683370190505b50905060005b84518110156106c35761069685828151811061066f5761066f6119ed565b6020026020010151858381518110610689576106896119ed565b602002602001015161038b565b8282815181106106a8576106a86119ed565b60209081029190910101526106bc81611a19565b9050610651565b509392505050565b6000546001600160a01b031633146107255760405162461bcd60e51b815260206004820181905260248201527f4f776e61626c653a2063616c6c6572206973206e6f7420746865206f776e657260448201526064016103f3565b61072f6000610d92565b565b6000600260055414156107865760405162461bcd60e51b815260206004820152601f60248201527f5265656e7472616e637947756172643a207265656e7472616e742063616c6c0060448201526064016103f3565b6002600555826107d85760405162461bcd60e51b815260206004820152601b60248201527f5175616e746974792073686f756c6420626520706f736974697665000000000060448201526064016103f3565b6107e6600680546001019055565b60006107f160065490565b905061080e85828660405180602001604052806000815250610de2565b6108188184610ef4565b6001600555949350505050565b336001600160a01b03831614156108905760405162461bcd60e51b815260206004820152602960248201527f455243313135353a2073657474696e6720617070726f76616c20737461747573604482015268103337b91039b2b63360b91b60648201526084016103f3565b3360008181526002602090815260408083206001600160a01b03871680855290835292819020805460ff191686151590811790915590519081529192917f17307eab39ab6107e8899845ad3d59bd9653f200f220920489ca2b5937696c31910160405180910390a35050565b60008181526004602052604090205460609061095a5760405162461bcd60e51b815260206004820152601f60248201527f55524920717565727920666f72206e6f6e6578697374656e7420746f6b656e0060448201526064016103f3565b60008281526007602052604081208054610973906119b2565b80601f016020809104026020016040519081016040528092919081815260200182805461099f906119b2565b80156109ec5780601f106109c1576101008083540402835291602001916109ec565b820191906000526020600020905b8154815290600101906020018083116109cf57829003601f168201915b5093979650505050505050565b6040516001600160a01b038216903480156108fc02916000818181858888f19350505050158015610a2e573d6000803e3d6000fd5b5050565b6060604051806080016040528060578152602001611ccf60579139905090565b6001600160a01b038516331480610a6e5750610a6e853361031d565b610acc5760405162461bcd60e51b815260206004820152602960248201527f455243313135353a2063616c6c6572206973206e6f74206f776e6572206e6f7260448201526808185c1c1c9bdd995960ba1b60648201526084016103f3565b61059a8585858585610f18565b6000546001600160a01b03163314610b335760405162461bcd60e51b815260206004820181905260248201527f4f776e61626c653a2063616c6c6572206973206e6f7420746865206f776e657260448201526064016103f3565b6001600160a01b038116610b985760405162461bcd60e51b815260206004820152602660248201527f4f776e61626c653a206e6577206f776e657220697320746865207a65726f206160448201526564647265737360d01b60648201526084016103f3565b610ba181610d92565b50565b8151835114610c065760405162461bcd60e51b815260206004820152602860248201527f455243313135353a2069647320616e6420616d6f756e7473206c656e677468206044820152670dad2e6dac2e8c6d60c31b60648201526084016103f3565b6001600160a01b038416610c2c5760405162461bcd60e51b81526004016103f390611a34565b33610c3b818787878787611039565b60005b8451811015610d24576000858281518110610c5b57610c5b6119ed565b602002602001015190506000858381518110610c7957610c796119ed565b60209081029190910181015160008481526001835260408082206001600160a01b038e168352909352919091205490915081811015610cca5760405162461bcd60e51b81526004016103f390611a79565b60008381526001602090815260408083206001600160a01b038e8116855292528083208585039055908b16825281208054849290610d09908490611ac3565b9250508190555050505080610d1d90611a19565b9050610c3e565b50846001600160a01b0316866001600160a01b0316826001600160a01b03167f4a39dc06d4c0dbc64b70af90fd698a233a518aa5d07e595d983b8c0526c8f7fb8787604051610d74929190611adb565b60405180910390a4610d8a818787878787611145565b505050505050565b600080546001600160a01b038381166001600160a01b0319831681178455604051919092169283917f8be0079c531659141344cd1fd0a4f28419497f9722a3daafe3b4186f6b6457e09190a35050565b6001600160a01b038416610e425760405162461bcd60e51b815260206004820152602160248201527f455243313135353a206d696e7420746f20746865207a65726f206164647265736044820152607360f81b60648201526084016103f3565b33610e6281600087610e53886112a1565b610e5c886112a1565b87611039565b60008481526001602090815260408083206001600160a01b038916845290915281208054859290610e94908490611ac3565b909155505060408051858152602081018590526001600160a01b0380881692600092918516917fc3d58168c5ae7397731d063d5bbf3d657854427343f4c083240f7aacaa2d0f62910160405180910390a461059a816000878787876112ec565b60008281526007602090815260409091208251610f13928401906113a7565b505050565b6001600160a01b038416610f3e5760405162461bcd60e51b81526004016103f390611a34565b33610f4e818787610e53886112a1565b60008481526001602090815260408083206001600160a01b038a16845290915290205483811015610f915760405162461bcd60e51b81526004016103f390611a79565b60008581526001602090815260408083206001600160a01b038b8116855292528083208785039055908816825281208054869290610fd0908490611ac3565b909155505060408051868152602081018690526001600160a01b03808916928a821692918616917fc3d58168c5ae7397731d063d5bbf3d657854427343f4c083240f7aacaa2d0f62910160405180910390a46110308288888888886112ec565b50505050505050565b6001600160a01b0385166110c05760005b83518110156110be57828181518110611065576110656119ed565b602002602001015160046000868481518110611083576110836119ed565b6020026020010151815260200190815260200160002060008282546110a89190611ac3565b909155506110b7905081611a19565b905061104a565b505b6001600160a01b038416610d8a5760005b8351811015611030578281815181106110ec576110ec6119ed565b60200260200101516004600086848151811061110a5761110a6119ed565b60200260200101518152602001908152602001600020600082825461112f9190611b09565b9091555061113e905081611a19565b90506110d1565b6001600160a01b0384163b15610d8a5760405163bc197c8160e01b81526001600160a01b0385169063bc197c81906111899089908990889088908890600401611b20565b6020604051808303816000875af19250505080156111c4575060408051601f3d908101601f191682019092526111c191810190611b7e565b60015b611271576111d0611b9b565b806308c379a0141561120a57506111e5611bb7565b806111f0575061120c565b8060405162461bcd60e51b81526004016103f39190611521565b505b60405162461bcd60e51b815260206004820152603460248201527f455243313135353a207472616e7366657220746f206e6f6e20455243313135356044820152732932b1b2b4bb32b91034b6b83632b6b2b73a32b960611b60648201526084016103f3565b6001600160e01b0319811663bc197c8160e01b146110305760405162461bcd60e51b81526004016103f390611c41565b604080516001808252818301909252606091600091906020808301908036833701905050905082816000815181106112db576112db6119ed565b602090810291909101015292915050565b6001600160a01b0384163b15610d8a5760405163f23a6e6160e01b81526001600160a01b0385169063f23a6e61906113309089908990889088908890600401611c89565b6020604051808303816000875af192505050801561136b575060408051601f3d908101601f1916820190925261136891810190611b7e565b60015b611377576111d0611b9b565b6001600160e01b0319811663f23a6e6160e01b146110305760405162461bcd60e51b81526004016103f390611c41565b8280546113b3906119b2565b90600052602060002090601f0160209004810192826113d5576000855561141b565b82601f106113ee57805160ff191683800117855561141b565b8280016001018555821561141b579182015b8281111561141b578251825591602001919060010190611400565b5061142792915061142b565b5090565b5b80821115611427576000815560010161142c565b6001600160a01b0381168114610ba157600080fd5b6000806040838503121561146857600080fd5b823561147381611440565b946020939093013593505050565b6001600160e01b031981168114610ba157600080fd5b6000602082840312156114a957600080fd5b81356114b481611481565b9392505050565b6000602082840312156114cd57600080fd5b5035919050565b6000815180845260005b818110156114fa576020818501810151868301820152016114de565b8181111561150c576000602083870101525b50601f01601f19169290920160200192915050565b6020815260006114b460208301846114d4565b634e487b7160e01b600052604160045260246000fd5b601f8201601f1916810167ffffffffffffffff8111828210171561157057611570611534565b6040525050565b600067ffffffffffffffff82111561159157611591611534565b5060051b60200190565b600082601f8301126115ac57600080fd5b813560206115b982611577565b6040516115c6828261154a565b83815260059390931b85018201928281019150868411156115e657600080fd5b8286015b8481101561160157803583529183019183016115ea565b509695505050505050565b600067ffffffffffffffff83111561162657611626611534565b60405161163d601f8501601f19166020018261154a565b80915083815284848401111561165257600080fd5b83836020830137600060208583010152509392505050565b600082601f83011261167b57600080fd5b6114b48383356020850161160c565b600080600080600060a086880312156116a257600080fd5b85356116ad81611440565b945060208601356116bd81611440565b9350604086013567ffffffffffffffff808211156116da57600080fd5b6116e689838a0161159b565b945060608801359150808211156116fc57600080fd5b61170889838a0161159b565b9350608088013591508082111561171e57600080fd5b5061172b8882890161166a565b9150509295509295909350565b6000806040838503121561174b57600080fd5b823567ffffffffffffffff8082111561176357600080fd5b818501915085601f83011261177757600080fd5b8135602061178482611577565b604051611791828261154a565b83815260059390931b85018201928281019150898411156117b157600080fd5b948201945b838610156117d85785356117c981611440565b825294820194908201906117b6565b965050860135925050808211156117ee57600080fd5b506117fb8582860161159b565b9150509250929050565b600081518084526020808501945080840160005b8381101561183557815187529582019590820190600101611819565b509495945050505050565b6020815260006114b46020830184611805565b60008060006060848603121561186857600080fd5b833561187381611440565b925060208401359150604084013567ffffffffffffffff81111561189657600080fd5b8401601f810186136118a757600080fd5b6118b68682356020840161160c565b9150509250925092565b600080604083850312156118d357600080fd5b82356118de81611440565b9150602083013580151581146118f357600080fd5b809150509250929050565b60006020828403121561191057600080fd5b81356114b481611440565b6000806040838503121561192e57600080fd5b823561193981611440565b915060208301356118f381611440565b600080600080600060a0868803121561196157600080fd5b853561196c81611440565b9450602086013561197c81611440565b93506040860135925060608601359150608086013567ffffffffffffffff8111156119a657600080fd5b61172b8882890161166a565b600181811c908216806119c657607f821691505b602082108114156119e757634e487b7160e01b600052602260045260246000fd5b50919050565b634e487b7160e01b600052603260045260246000fd5b634e487b7160e01b600052601160045260246000fd5b6000600019821415611a2d57611a2d611a03565b5060010190565b60208082526025908201527f455243313135353a207472616e7366657220746f20746865207a65726f206164604082015264647265737360d81b606082015260800190565b6020808252602a908201527f455243313135353a20696e73756666696369656e742062616c616e636520666f60408201526939103a3930b739b332b960b11b606082015260800190565b60008219821115611ad657611ad6611a03565b500190565b604081526000611aee6040830185611805565b8281036020840152611b008185611805565b95945050505050565b600082821015611b1b57611b1b611a03565b500390565b6001600160a01b0386811682528516602082015260a060408201819052600090611b4c90830186611805565b8281036060840152611b5e8186611805565b90508281036080840152611b7281856114d4565b98975050505050505050565b600060208284031215611b9057600080fd5b81516114b481611481565b600060033d1115611bb45760046000803e5060005160e01c5b90565b600060443d1015611bc55790565b6040516003193d81016004833e81513d67ffffffffffffffff8160248401118184111715611bf557505050505090565b8285019150815181811115611c0d5750505050505090565b843d8701016020828501011115611c275750505050505090565b611c366020828601018761154a565b509095945050505050565b60208082526028908201527f455243313135353a204552433131353552656365697665722072656a656374656040820152676420746f6b656e7360c01b606082015260800190565b6001600160a01b03868116825285166020820152604081018490526060810183905260a060808201819052600090611cc3908301846114d4565b97965050505050505056fe68747470733a2f2f62616679626569676c7a7a6c3267337933363279797a626e75746c33646b75327134336f79626166626e716179636d6276696b71716c363775736d2e697066732e696e667572612d697066732e696fa26469706673582212203bfaf5000e04f6e8206edab1548e2e63cd689aae4a2447576f7b8ba825afd48e64736f6c634300080a0033",
  "linkReferences": {},
  "deployedLinkReferences": {}
}