{
  "_format": "hh-sol-artifact-1",
  "contractName": "Devparty",
  "sourceName": "contracts/NFT.sol",
  "abi": [
    {
      "inputs": [],
      "stateMutability": "nonpayable",
      "type": "constructor"
    },
    {
      "anonymous": false,
      "inputs": [
        {
          "indexed": true,
          "internalType": "address",
          "name": "account",
          "type": "address"
        },
        {
          "indexed": true,
          "internalType": "address",
          "name": "operator",
          "type": "address"
        },
        {
          "indexed": false,
          "internalType": "bool",
          "name": "approved",
          "type": "bool"
        }
      ],
      "name": "ApprovalForAll",
      "type": "event"
    },
    {
      "anonymous": false,
      "inputs": [
        {
          "indexed": true,
          "internalType": "address",
          "name": "previousOwner",
          "type": "address"
        },
        {
          "indexed": true,
          "internalType": "address",
          "name": "newOwner",
          "type": "address"
        }
      ],
      "name": "OwnershipTransferred",
      "type": "event"
    },
    {
      "anonymous": false,
      "inputs": [
        {
          "indexed": true,
          "internalType": "address",
          "name": "operator",
          "type": "address"
        },
        {
          "indexed": true,
          "internalType": "address",
          "name": "from",
          "type": "address"
        },
        {
          "indexed": true,
          "internalType": "address",
          "name": "to",
          "type": "address"
        },
        {
          "indexed": false,
          "internalType": "uint256[]",
          "name": "ids",
          "type": "uint256[]"
        },
        {
          "indexed": false,
          "internalType": "uint256[]",
          "name": "values",
          "type": "uint256[]"
        }
      ],
      "name": "TransferBatch",
      "type": "event"
    },
    {
      "anonymous": false,
      "inputs": [
        {
          "indexed": true,
          "internalType": "address",
          "name": "operator",
          "type": "address"
        },
        {
          "indexed": true,
          "internalType": "address",
          "name": "from",
          "type": "address"
        },
        {
          "indexed": true,
          "internalType": "address",
          "name": "to",
          "type": "address"
        },
        {
          "indexed": false,
          "internalType": "uint256",
          "name": "id",
          "type": "uint256"
        },
        {
          "indexed": false,
          "internalType": "uint256",
          "name": "value",
          "type": "uint256"
        }
      ],
      "name": "TransferSingle",
      "type": "event"
    },
    {
      "anonymous": false,
      "inputs": [
        {
          "indexed": false,
          "internalType": "string",
          "name": "value",
          "type": "string"
        },
        {
          "indexed": true,
          "internalType": "uint256",
          "name": "id",
          "type": "uint256"
        }
      ],
      "name": "URI",
      "type": "event"
    },
    {
      "inputs": [
        {
          "internalType": "address",
          "name": "account",
          "type": "address"
        },
        {
          "internalType": "uint256",
          "name": "id",
          "type": "uint256"
        }
      ],
      "name": "balanceOf",
      "outputs": [
        {
          "internalType": "uint256",
          "name": "",
          "type": "uint256"
        }
      ],
      "stateMutability": "view",
      "type": "function"
    },
    {
      "inputs": [
        {
          "internalType": "address[]",
          "name": "accounts",
          "type": "address[]"
        },
        {
          "internalType": "uint256[]",
          "name": "ids",
          "type": "uint256[]"
        }
      ],
      "name": "balanceOfBatch",
      "outputs": [
        {
          "internalType": "uint256[]",
          "name": "",
          "type": "uint256[]"
        }
      ],
      "stateMutability": "view",
      "type": "function"
    },
    {
      "inputs": [],
      "name": "contractURI",
      "outputs": [
        {
          "internalType": "string",
          "name": "",
          "type": "string"
        }
      ],
      "stateMutability": "pure",
      "type": "function"
    },
    {
      "inputs": [
        {
          "internalType": "uint256",
          "name": "id",
          "type": "uint256"
        }
      ],
      "name": "exists",
      "outputs": [
        {
          "internalType": "bool",
          "name": "",
          "type": "bool"
        }
      ],
      "stateMutability": "view",
      "type": "function"
    },
    {
      "inputs": [
        {
          "internalType": "address",
          "name": "account",
          "type": "address"
        },
        {
          "internalType": "address",
          "name": "operator",
          "type": "address"
        }
      ],
      "name": "isApprovedForAll",
      "outputs": [
        {
          "internalType": "bool",
          "name": "",
          "type": "bool"
        }
      ],
      "stateMutability": "view",
      "type": "function"
    },
    {
      "inputs": [
        {
          "internalType": "address",
          "name": "recipient",
          "type": "address"
        },
        {
          "internalType": "uint256",
          "name": "amount",
          "type": "uint256"
        },
        {
          "internalType": "string",
          "name": "uri",
          "type": "string"
        }
      ],
      "name": "issueToken",
      "outputs": [
        {
          "internalType": "uint256",
          "name": "",
          "type": "uint256"
        }
      ],
      "stateMutability": "nonpayable",
      "type": "function"
    },
    {
      "inputs": [],
      "name": "owner",
      "outputs": [
        {
          "internalType": "address",
          "name": "",
          "type": "address"
        }
      ],
      "stateMutability": "view",
      "type": "function"
    },
    {
      "inputs": [],
      "name": "renounceOwnership",
      "outputs": [],
      "stateMutability": "nonpayable",
      "type": "function"
    },
    {
      "inputs": [
        {
          "internalType": "address",
          "name": "from",
          "type": "address"
        },
        {
          "internalType": "address",
          "name": "to",
          "type": "address"
        },
        {
          "internalType": "uint256[]",
          "name": "ids",
          "type": "uint256[]"
        },
        {
          "internalType": "uint256[]",
          "name": "amounts",
          "type": "uint256[]"
        },
        {
          "internalType": "bytes",
          "name": "data",
          "type": "bytes"
        }
      ],
      "name": "safeBatchTransferFrom",
      "outputs": [],
      "stateMutability": "nonpayable",
      "type": "function"
    },
    {
      "inputs": [
        {
          "internalType": "address",
          "name": "from",
          "type": "address"
        },
        {
          "internalType": "address",
          "name": "to",
          "type": "address"
        },
        {
          "internalType": "uint256",
          "name": "id",
          "type": "uint256"
        },
        {
          "internalType": "uint256",
          "name": "amount",
          "type": "uint256"
        },
        {
          "internalType": "bytes",
          "name": "data",
          "type": "bytes"
        }
      ],
      "name": "safeTransferFrom",
      "outputs": [],
      "stateMutability": "nonpayable",
      "type": "function"
    },
    {
      "inputs": [
        {
          "internalType": "address",
          "name": "operator",
          "type": "address"
        },
        {
          "internalType": "bool",
          "name": "approved",
          "type": "bool"
        }
      ],
      "name": "setApprovalForAll",
      "outputs": [],
      "stateMutability": "nonpayable",
      "type": "function"
    },
    {
      "inputs": [
        {
          "internalType": "bytes4",
          "name": "interfaceId",
          "type": "bytes4"
        }
      ],
      "name": "supportsInterface",
      "outputs": [
        {
          "internalType": "bool",
          "name": "",
          "type": "bool"
        }
      ],
      "stateMutability": "view",
      "type": "function"
    },
    {
      "inputs": [
        {
          "internalType": "uint256",
          "name": "tokenId",
          "type": "uint256"
        }
      ],
      "name": "tokenURI",
      "outputs": [
        {
          "internalType": "string",
          "name": "",
          "type": "string"
        }
      ],
      "stateMutability": "view",
      "type": "function"
    },
    {
      "inputs": [
        {
          "internalType": "uint256",
          "name": "id",
          "type": "uint256"
        }
      ],
      "name": "totalSupply",
      "outputs": [
        {
          "internalType": "uint256",
          "name": "",
          "type": "uint256"
        }
      ],
      "stateMutability": "view",
      "type": "function"
    },
    {
      "inputs": [
        {
          "internalType": "address",
          "name": "newOwner",
          "type": "address"
        }
      ],
      "name": "transferOwnership",
      "outputs": [],
      "stateMutability": "nonpayable",
      "type": "function"
    },
    {
      "inputs": [
        {
          "internalType": "uint256",
          "name": "",
          "type": "uint256"
        }
      ],
      "name": "uri",
      "outputs": [
        {
          "internalType": "string",
          "name": "",
          "type": "string"
        }
      ],
      "stateMutability": "view",
      "type": "function"
    }
  ],
  "bytecode": "0x60806040523480156200001157600080fd5b506040805160208101909152600081526200002c3362000043565b620000378162000093565b5060016005556200018f565b600080546001600160a01b038381166001600160a01b0319831681178455604051919092169283917f8be0079c531659141344cd1fd0a4f28419497f9722a3daafe3b4186f6b6457e09190a35050565b8051620000a8906003906020840190620000ac565b5050565b828054620000ba9062000152565b90600052602060002090601f016020900481019282620000de576000855562000129565b82601f10620000f957805160ff191683800117855562000129565b8280016001018555821562000129579182015b82811115620001295782518255916020019190600101906200010c565b50620001379291506200013b565b5090565b5b808211156200013757600081556001016200013c565b600181811c908216806200016757607f821691505b602082108114156200018957634e487b7160e01b600052602260045260246000fd5b50919050565b611c59806200019f6000396000f3fe608060405234801561001057600080fd5b50600436106100ff5760003560e01c80638da5cb5b11610097578063e8a3d48511610066578063e8a3d48514610240578063e985e9c514610248578063f242432a14610284578063f2fde38b1461029757600080fd5b80638da5cb5b146101df578063a22cb465146101fa578063bd85b0391461020d578063c87b56dd1461022d57600080fd5b80634e1273f4116100d35780634e1273f4146101825780634f558e79146101a2578063715018a6146101c457806376abafdc146101cc57600080fd5b8062fdd58e1461010457806301ffc9a71461012a5780630e89341c1461014d5780632eb2c2d61461016d575b600080fd5b610117610112366004611360565b6102aa565b6040519081526020015b60405180910390f35b61013d6101383660046113a0565b610343565b6040519015158152602001610121565b61016061015b3660046113c4565b610395565b604051610121919061142a565b61018061017b366004611593565b610429565b005b61019561019036600461163d565b6104c0565b6040516101219190611743565b61013d6101b03660046113c4565b600090815260046020526040902054151590565b6101806105ea565b6101176101da366004611756565b610650565b6000546040516001600160a01b039091168152602001610121565b6101806102083660046117c1565b610744565b61011761021b3660046113c4565b60009081526004602052604090205490565b61016061023b3660046113c4565b61081b565b610160610918565b61013d6102563660046117fd565b6001600160a01b03918216600090815260026020908152604080832093909416825291909152205460ff1690565b610180610292366004611830565b610938565b6101806102a5366004611895565b6109bf565b60006001600160a01b03831661031b5760405162461bcd60e51b815260206004820152602b60248201527f455243313135353a2062616c616e636520717565727920666f7220746865207a60448201526a65726f206164647265737360a81b60648201526084015b60405180910390fd5b5060009081526001602090815260408083206001600160a01b03949094168352929052205490565b60006001600160e01b03198216636cdb3d1360e11b148061037457506001600160e01b031982166303a24d0760e21b145b8061038f57506301ffc9a760e01b6001600160e01b03198316145b92915050565b6060600380546103a4906118b0565b80601f01602080910402602001604051908101604052809291908181526020018280546103d0906118b0565b801561041d5780601f106103f25761010080835404028352916020019161041d565b820191906000526020600020905b81548152906001019060200180831161040057829003601f168201915b50505050509050919050565b6001600160a01b03851633148061044557506104458533610256565b6104ac5760405162461bcd60e51b815260206004820152603260248201527f455243313135353a207472616e736665722063616c6c6572206973206e6f74206044820152711bdddb995c881b9bdc88185c1c1c9bdd995960721b6064820152608401610312565b6104b98585858585610a8a565b5050505050565b606081518351146105255760405162461bcd60e51b815260206004820152602960248201527f455243313135353a206163636f756e747320616e6420696473206c656e677468604482015268040dad2e6dac2e8c6d60bb1b6064820152608401610312565b6000835167ffffffffffffffff8111156105415761054161143d565b60405190808252806020026020018201604052801561056a578160200160208202803683370190505b50905060005b84518110156105e2576105b585828151811061058e5761058e6118eb565b60200260200101518583815181106105a8576105a86118eb565b60200260200101516102aa565b8282815181106105c7576105c76118eb565b60209081029190910101526105db81611917565b9050610570565b509392505050565b6000546001600160a01b031633146106445760405162461bcd60e51b815260206004820181905260248201527f4f776e61626c653a2063616c6c6572206973206e6f7420746865206f776e65726044820152606401610312565b61064e6000610c78565b565b6000600260055414156106a55760405162461bcd60e51b815260206004820152601f60248201527f5265656e7472616e637947756172643a207265656e7472616e742063616c6c006044820152606401610312565b6002600555826106f75760405162461bcd60e51b815260206004820152601b60248201527f5175616e746974792073686f756c6420626520706f73697469766500000000006044820152606401610312565b610705600680546001019055565b600061071060065490565b905061072d85828660405180602001604052806000815250610cc8565b6107378184610dda565b6001600555949350505050565b336001600160a01b03831614156107af5760405162461bcd60e51b815260206004820152602960248201527f455243313135353a2073657474696e6720617070726f76616c20737461747573604482015268103337b91039b2b63360b91b6064820152608401610312565b3360008181526002602090815260408083206001600160a01b03871680855290835292819020805460ff191686151590811790915590519081529192917f17307eab39ab6107e8899845ad3d59bd9653f200f220920489ca2b5937696c31910160405180910390a35050565b6000818152600460205260409020546060906108795760405162461bcd60e51b815260206004820152601f60248201527f55524920717565727920666f72206e6f6e6578697374656e7420746f6b656e006044820152606401610312565b60008281526007602052604081208054610892906118b0565b80601f01602080910402602001604051908101604052809291908181526020018280546108be906118b0565b801561090b5780601f106108e05761010080835404028352916020019161090b565b820191906000526020600020905b8154815290600101906020018083116108ee57829003601f168201915b5093979650505050505050565b6060604051806080016040528060578152602001611bcd60579139905090565b6001600160a01b03851633148061095457506109548533610256565b6109b25760405162461bcd60e51b815260206004820152602960248201527f455243313135353a2063616c6c6572206973206e6f74206f776e6572206e6f7260448201526808185c1c1c9bdd995960ba1b6064820152608401610312565b6104b98585858585610dfe565b6000546001600160a01b03163314610a195760405162461bcd60e51b815260206004820181905260248201527f4f776e61626c653a2063616c6c6572206973206e6f7420746865206f776e65726044820152606401610312565b6001600160a01b038116610a7e5760405162461bcd60e51b815260206004820152602660248201527f4f776e61626c653a206e6577206f776e657220697320746865207a65726f206160448201526564647265737360d01b6064820152608401610312565b610a8781610c78565b50565b8151835114610aec5760405162461bcd60e51b815260206004820152602860248201527f455243313135353a2069647320616e6420616d6f756e7473206c656e677468206044820152670dad2e6dac2e8c6d60c31b6064820152608401610312565b6001600160a01b038416610b125760405162461bcd60e51b815260040161031290611932565b33610b21818787878787610f1f565b60005b8451811015610c0a576000858281518110610b4157610b416118eb565b602002602001015190506000858381518110610b5f57610b5f6118eb565b60209081029190910181015160008481526001835260408082206001600160a01b038e168352909352919091205490915081811015610bb05760405162461bcd60e51b815260040161031290611977565b60008381526001602090815260408083206001600160a01b038e8116855292528083208585039055908b16825281208054849290610bef9084906119c1565b9250508190555050505080610c0390611917565b9050610b24565b50846001600160a01b0316866001600160a01b0316826001600160a01b03167f4a39dc06d4c0dbc64b70af90fd698a233a518aa5d07e595d983b8c0526c8f7fb8787604051610c5a9291906119d9565b60405180910390a4610c7081878787878761102b565b505050505050565b600080546001600160a01b038381166001600160a01b0319831681178455604051919092169283917f8be0079c531659141344cd1fd0a4f28419497f9722a3daafe3b4186f6b6457e09190a35050565b6001600160a01b038416610d285760405162461bcd60e51b815260206004820152602160248201527f455243313135353a206d696e7420746f20746865207a65726f206164647265736044820152607360f81b6064820152608401610312565b33610d4881600087610d3988611196565b610d4288611196565b87610f1f565b60008481526001602090815260408083206001600160a01b038916845290915281208054859290610d7a9084906119c1565b909155505060408051858152602081018590526001600160a01b0380881692600092918516917fc3d58168c5ae7397731d063d5bbf3d657854427343f4c083240f7aacaa2d0f62910160405180910390a46104b9816000878787876111e1565b60008281526007602090815260409091208251610df9928401906112ab565b505050565b6001600160a01b038416610e245760405162461bcd60e51b815260040161031290611932565b33610e34818787610d3988611196565b60008481526001602090815260408083206001600160a01b038a16845290915290205483811015610e775760405162461bcd60e51b815260040161031290611977565b60008581526001602090815260408083206001600160a01b038b8116855292528083208785039055908816825281208054869290610eb69084906119c1565b909155505060408051868152602081018690526001600160a01b03808916928a821692918616917fc3d58168c5ae7397731d063d5bbf3d657854427343f4c083240f7aacaa2d0f62910160405180910390a4610f168288888888886111e1565b50505050505050565b6001600160a01b038516610fa65760005b8351811015610fa457828181518110610f4b57610f4b6118eb565b602002602001015160046000868481518110610f6957610f696118eb565b602002602001015181526020019081526020016000206000828254610f8e91906119c1565b90915550610f9d905081611917565b9050610f30565b505b6001600160a01b038416610c705760005b8351811015610f1657828181518110610fd257610fd26118eb565b602002602001015160046000868481518110610ff057610ff06118eb565b6020026020010151815260200190815260200160002060008282546110159190611a07565b90915550611024905081611917565b9050610fb7565b6001600160a01b0384163b15610c705760405163bc197c8160e01b81526001600160a01b0385169063bc197c819061106f9089908990889088908890600401611a1e565b602060405180830381600087803b15801561108957600080fd5b505af19250505080156110b9575060408051601f3d908101601f191682019092526110b691810190611a7c565b60015b611166576110c5611a99565b806308c379a014156110ff57506110da611ab5565b806110e55750611101565b8060405162461bcd60e51b8152600401610312919061142a565b505b60405162461bcd60e51b815260206004820152603460248201527f455243313135353a207472616e7366657220746f206e6f6e20455243313135356044820152732932b1b2b4bb32b91034b6b83632b6b2b73a32b960611b6064820152608401610312565b6001600160e01b0319811663bc197c8160e01b14610f165760405162461bcd60e51b815260040161031290611b3f565b604080516001808252818301909252606091600091906020808301908036833701905050905082816000815181106111d0576111d06118eb565b602090810291909101015292915050565b6001600160a01b0384163b15610c705760405163f23a6e6160e01b81526001600160a01b0385169063f23a6e61906112259089908990889088908890600401611b87565b602060405180830381600087803b15801561123f57600080fd5b505af192505050801561126f575060408051601f3d908101601f1916820190925261126c91810190611a7c565b60015b61127b576110c5611a99565b6001600160e01b0319811663f23a6e6160e01b14610f165760405162461bcd60e51b815260040161031290611b3f565b8280546112b7906118b0565b90600052602060002090601f0160209004810192826112d9576000855561131f565b82601f106112f257805160ff191683800117855561131f565b8280016001018555821561131f579182015b8281111561131f578251825591602001919060010190611304565b5061132b92915061132f565b5090565b5b8082111561132b5760008155600101611330565b80356001600160a01b038116811461135b57600080fd5b919050565b6000806040838503121561137357600080fd5b61137c83611344565b946020939093013593505050565b6001600160e01b031981168114610a8757600080fd5b6000602082840312156113b257600080fd5b81356113bd8161138a565b9392505050565b6000602082840312156113d657600080fd5b5035919050565b6000815180845260005b81811015611403576020818501810151868301820152016113e7565b81811115611415576000602083870101525b50601f01601f19169290920160200192915050565b6020815260006113bd60208301846113dd565b634e487b7160e01b600052604160045260246000fd5b601f8201601f1916810167ffffffffffffffff811182821017156114795761147961143d565b6040525050565b600067ffffffffffffffff82111561149a5761149a61143d565b5060051b60200190565b600082601f8301126114b557600080fd5b813560206114c282611480565b6040516114cf8282611453565b83815260059390931b85018201928281019150868411156114ef57600080fd5b8286015b8481101561150a57803583529183019183016114f3565b509695505050505050565b600067ffffffffffffffff83111561152f5761152f61143d565b604051611546601f8501601f191660200182611453565b80915083815284848401111561155b57600080fd5b83836020830137600060208583010152509392505050565b600082601f83011261158457600080fd5b6113bd83833560208501611515565b600080600080600060a086880312156115ab57600080fd5b6115b486611344565b94506115c260208701611344565b9350604086013567ffffffffffffffff808211156115df57600080fd5b6115eb89838a016114a4565b9450606088013591508082111561160157600080fd5b61160d89838a016114a4565b9350608088013591508082111561162357600080fd5b5061163088828901611573565b9150509295509295909350565b6000806040838503121561165057600080fd5b823567ffffffffffffffff8082111561166857600080fd5b818501915085601f83011261167c57600080fd5b8135602061168982611480565b6040516116968282611453565b83815260059390931b85018201928281019150898411156116b657600080fd5b948201945b838610156116db576116cc86611344565b825294820194908201906116bb565b965050860135925050808211156116f157600080fd5b506116fe858286016114a4565b9150509250929050565b600081518084526020808501945080840160005b838110156117385781518752958201959082019060010161171c565b509495945050505050565b6020815260006113bd6020830184611708565b60008060006060848603121561176b57600080fd5b61177484611344565b925060208401359150604084013567ffffffffffffffff81111561179757600080fd5b8401601f810186136117a857600080fd5b6117b786823560208401611515565b9150509250925092565b600080604083850312156117d457600080fd5b6117dd83611344565b9150602083013580151581146117f257600080fd5b809150509250929050565b6000806040838503121561181057600080fd5b61181983611344565b915061182760208401611344565b90509250929050565b600080600080600060a0868803121561184857600080fd5b61185186611344565b945061185f60208701611344565b93506040860135925060608601359150608086013567ffffffffffffffff81111561188957600080fd5b61163088828901611573565b6000602082840312156118a757600080fd5b6113bd82611344565b600181811c908216806118c457607f821691505b602082108114156118e557634e487b7160e01b600052602260045260246000fd5b50919050565b634e487b7160e01b600052603260045260246000fd5b634e487b7160e01b600052601160045260246000fd5b600060001982141561192b5761192b611901565b5060010190565b60208082526025908201527f455243313135353a207472616e7366657220746f20746865207a65726f206164604082015264647265737360d81b606082015260800190565b6020808252602a908201527f455243313135353a20696e73756666696369656e742062616c616e636520666f60408201526939103a3930b739b332b960b11b606082015260800190565b600082198211156119d4576119d4611901565b500190565b6040815260006119ec6040830185611708565b82810360208401526119fe8185611708565b95945050505050565b600082821015611a1957611a19611901565b500390565b6001600160a01b0386811682528516602082015260a060408201819052600090611a4a90830186611708565b8281036060840152611a5c8186611708565b90508281036080840152611a7081856113dd565b98975050505050505050565b600060208284031215611a8e57600080fd5b81516113bd8161138a565b600060033d1115611ab25760046000803e5060005160e01c5b90565b600060443d1015611ac35790565b6040516003193d81016004833e81513d67ffffffffffffffff8160248401118184111715611af357505050505090565b8285019150815181811115611b0b5750505050505090565b843d8701016020828501011115611b255750505050505090565b611b3460208286010187611453565b509095945050505050565b60208082526028908201527f455243313135353a204552433131353552656365697665722072656a656374656040820152676420746f6b656e7360c01b606082015260800190565b6001600160a01b03868116825285166020820152604081018490526060810183905260a060808201819052600090611bc1908301846113dd565b97965050505050505056fe68747470733a2f2f62616679626569676c7a7a6c3267337933363279797a626e75746c33646b75327134336f79626166626e716179636d6276696b71716c363775736d2e697066732e696e667572612d697066732e696fa26469706673582212202de5ecb4c2f5145943f2d3af3810017d6b234e428e93e5e13dc29d61d638942664736f6c63430008090033",
  "linkReferences": {},
  "deployedLinkReferences": {}
}