{
  "_format": "hh-sol-artifact-1",
  "contractName": "Devparty",
  "sourceName": "contracts/Devparty.sol",
  "abi": [
    {
      "inputs": [],
      "stateMutability": "nonpayable",
      "type": "constructor"
    },
    {
      "anonymous": false,
      "inputs": [
        {
          "indexed": true,
          "internalType": "address",
          "name": "account",
          "type": "address"
        },
        {
          "indexed": true,
          "internalType": "address",
          "name": "operator",
          "type": "address"
        },
        {
          "indexed": false,
          "internalType": "bool",
          "name": "approved",
          "type": "bool"
        }
      ],
      "name": "ApprovalForAll",
      "type": "event"
    },
    {
      "anonymous": false,
      "inputs": [
        {
          "indexed": true,
          "internalType": "address",
          "name": "previousOwner",
          "type": "address"
        },
        {
          "indexed": true,
          "internalType": "address",
          "name": "newOwner",
          "type": "address"
        }
      ],
      "name": "OwnershipTransferred",
      "type": "event"
    },
    {
      "anonymous": false,
      "inputs": [
        {
          "indexed": true,
          "internalType": "address",
          "name": "operator",
          "type": "address"
        },
        {
          "indexed": true,
          "internalType": "address",
          "name": "from",
          "type": "address"
        },
        {
          "indexed": true,
          "internalType": "address",
          "name": "to",
          "type": "address"
        },
        {
          "indexed": false,
          "internalType": "uint256[]",
          "name": "ids",
          "type": "uint256[]"
        },
        {
          "indexed": false,
          "internalType": "uint256[]",
          "name": "values",
          "type": "uint256[]"
        }
      ],
      "name": "TransferBatch",
      "type": "event"
    },
    {
      "anonymous": false,
      "inputs": [
        {
          "indexed": true,
          "internalType": "address",
          "name": "operator",
          "type": "address"
        },
        {
          "indexed": true,
          "internalType": "address",
          "name": "from",
          "type": "address"
        },
        {
          "indexed": true,
          "internalType": "address",
          "name": "to",
          "type": "address"
        },
        {
          "indexed": false,
          "internalType": "uint256",
          "name": "id",
          "type": "uint256"
        },
        {
          "indexed": false,
          "internalType": "uint256",
          "name": "value",
          "type": "uint256"
        }
      ],
      "name": "TransferSingle",
      "type": "event"
    },
    {
      "anonymous": false,
      "inputs": [
        {
          "indexed": false,
          "internalType": "string",
          "name": "value",
          "type": "string"
        },
        {
          "indexed": true,
          "internalType": "uint256",
          "name": "id",
          "type": "uint256"
        }
      ],
      "name": "URI",
      "type": "event"
    },
    {
      "inputs": [
        {
          "internalType": "address",
          "name": "account",
          "type": "address"
        },
        {
          "internalType": "uint256",
          "name": "id",
          "type": "uint256"
        }
      ],
      "name": "balanceOf",
      "outputs": [
        {
          "internalType": "uint256",
          "name": "",
          "type": "uint256"
        }
      ],
      "stateMutability": "view",
      "type": "function"
    },
    {
      "inputs": [
        {
          "internalType": "address[]",
          "name": "accounts",
          "type": "address[]"
        },
        {
          "internalType": "uint256[]",
          "name": "ids",
          "type": "uint256[]"
        }
      ],
      "name": "balanceOfBatch",
      "outputs": [
        {
          "internalType": "uint256[]",
          "name": "",
          "type": "uint256[]"
        }
      ],
      "stateMutability": "view",
      "type": "function"
    },
    {
      "inputs": [],
      "name": "contractURI",
      "outputs": [
        {
          "internalType": "string",
          "name": "",
          "type": "string"
        }
      ],
      "stateMutability": "pure",
      "type": "function"
    },
    {
      "inputs": [
        {
          "internalType": "uint256",
          "name": "id",
          "type": "uint256"
        }
      ],
      "name": "exists",
      "outputs": [
        {
          "internalType": "bool",
          "name": "",
          "type": "bool"
        }
      ],
      "stateMutability": "view",
      "type": "function"
    },
    {
      "inputs": [
        {
          "internalType": "address",
          "name": "account",
          "type": "address"
        },
        {
          "internalType": "address",
          "name": "operator",
          "type": "address"
        }
      ],
      "name": "isApprovedForAll",
      "outputs": [
        {
          "internalType": "bool",
          "name": "",
          "type": "bool"
        }
      ],
      "stateMutability": "view",
      "type": "function"
    },
    {
      "inputs": [
        {
          "internalType": "address",
          "name": "recipient",
          "type": "address"
        },
        {
          "internalType": "uint256",
          "name": "amount",
          "type": "uint256"
        },
        {
          "internalType": "string",
          "name": "uri",
          "type": "string"
        }
      ],
      "name": "issueToken",
      "outputs": [
        {
          "internalType": "uint256",
          "name": "",
          "type": "uint256"
        }
      ],
      "stateMutability": "nonpayable",
      "type": "function"
    },
    {
      "inputs": [],
      "name": "owner",
      "outputs": [
        {
          "internalType": "address",
          "name": "",
          "type": "address"
        }
      ],
      "stateMutability": "view",
      "type": "function"
    },
    {
      "inputs": [],
      "name": "renounceOwnership",
      "outputs": [],
      "stateMutability": "nonpayable",
      "type": "function"
    },
    {
      "inputs": [
        {
          "internalType": "address",
          "name": "from",
          "type": "address"
        },
        {
          "internalType": "address",
          "name": "to",
          "type": "address"
        },
        {
          "internalType": "uint256[]",
          "name": "ids",
          "type": "uint256[]"
        },
        {
          "internalType": "uint256[]",
          "name": "amounts",
          "type": "uint256[]"
        },
        {
          "internalType": "bytes",
          "name": "data",
          "type": "bytes"
        }
      ],
      "name": "safeBatchTransferFrom",
      "outputs": [],
      "stateMutability": "nonpayable",
      "type": "function"
    },
    {
      "inputs": [
        {
          "internalType": "address",
          "name": "from",
          "type": "address"
        },
        {
          "internalType": "address",
          "name": "to",
          "type": "address"
        },
        {
          "internalType": "uint256",
          "name": "id",
          "type": "uint256"
        },
        {
          "internalType": "uint256",
          "name": "amount",
          "type": "uint256"
        },
        {
          "internalType": "bytes",
          "name": "data",
          "type": "bytes"
        }
      ],
      "name": "safeTransferFrom",
      "outputs": [],
      "stateMutability": "nonpayable",
      "type": "function"
    },
    {
      "inputs": [
        {
          "internalType": "address",
          "name": "operator",
          "type": "address"
        },
        {
          "internalType": "bool",
          "name": "approved",
          "type": "bool"
        }
      ],
      "name": "setApprovalForAll",
      "outputs": [],
      "stateMutability": "nonpayable",
      "type": "function"
    },
    {
      "inputs": [
        {
          "internalType": "bytes4",
          "name": "interfaceId",
          "type": "bytes4"
        }
      ],
      "name": "supportsInterface",
      "outputs": [
        {
          "internalType": "bool",
          "name": "",
          "type": "bool"
        }
      ],
      "stateMutability": "view",
      "type": "function"
    },
    {
      "inputs": [
        {
          "internalType": "address payable",
          "name": "recipient",
          "type": "address"
        }
      ],
      "name": "tipUser",
      "outputs": [],
      "stateMutability": "payable",
      "type": "function"
    },
    {
      "inputs": [
        {
          "internalType": "uint256",
          "name": "tokenId",
          "type": "uint256"
        }
      ],
      "name": "tokenURI",
      "outputs": [
        {
          "internalType": "string",
          "name": "",
          "type": "string"
        }
      ],
      "stateMutability": "view",
      "type": "function"
    },
    {
      "inputs": [
        {
          "internalType": "uint256",
          "name": "id",
          "type": "uint256"
        }
      ],
      "name": "totalSupply",
      "outputs": [
        {
          "internalType": "uint256",
          "name": "",
          "type": "uint256"
        }
      ],
      "stateMutability": "view",
      "type": "function"
    },
    {
      "inputs": [
        {
          "internalType": "address",
          "name": "newOwner",
          "type": "address"
        }
      ],
      "name": "transferOwnership",
      "outputs": [],
      "stateMutability": "nonpayable",
      "type": "function"
    },
    {
      "inputs": [
        {
          "internalType": "uint256",
          "name": "",
          "type": "uint256"
        }
      ],
      "name": "uri",
      "outputs": [
        {
          "internalType": "string",
          "name": "",
          "type": "string"
        }
      ],
      "stateMutability": "view",
      "type": "function"
    }
  ],
  "bytecode": "0x60806040523480156200001157600080fd5b506040805160208101909152600081526200002c3362000043565b620000378162000093565b5060016005556200018f565b600080546001600160a01b038381166001600160a01b0319831681178455604051919092169283917f8be0079c531659141344cd1fd0a4f28419497f9722a3daafe3b4186f6b6457e09190a35050565b8051620000a8906003906020840190620000ac565b5050565b828054620000ba9062000152565b90600052602060002090601f016020900481019282620000de576000855562000129565b82601f10620000f957805160ff191683800117855562000129565b8280016001018555821562000129579182015b82811115620001295782518255916020019190600101906200010c565b50620001379291506200013b565b5090565b5b808211156200013757600081556001016200013c565b600181811c908216806200016757607f821691505b602082108114156200018957634e487b7160e01b600052602260045260246000fd5b50919050565b611e17806200019f6000396000f3fe6080604052600436106100fd5760003560e01c806376abafdc11610095578063c87b56dd11610064578063c87b56dd146102cd578063e8a3d485146102ed578063e985e9c514610302578063f242432a1461034b578063f2fde38b1461036b57600080fd5b806376abafdc146102385780638da5cb5b14610258578063a22cb46514610280578063bd85b039146102a057600080fd5b80632eb2c2d6116100d15780632eb2c2d6146101a75780634e1273f4146101c75780634f558e79146101f4578063715018a61461022357600080fd5b8062fdd58e1461010257806301ffc9a7146101355780630e89341c1461016557806312bf6e9f14610192575b600080fd5b34801561010e57600080fd5b5061012261011d366004611511565b61038b565b6040519081526020015b60405180910390f35b34801561014157600080fd5b50610155610150366004611553565b610424565b604051901515815260200161012c565b34801561017157600080fd5b50610185610180366004611577565b610476565b60405161012c91906115dd565b6101a56101a03660046115f0565b61050a565b005b3480156101b357600080fd5b506101a56101c2366004611763565b6105ff565b3480156101d357600080fd5b506101e76101e2366004611811565b610696565b60405161012c9190611919565b34801561020057600080fd5b5061015561020f366004611577565b600090815260046020526040902054151590565b34801561022f57600080fd5b506101a56107c0565b34801561024457600080fd5b5061012261025336600461192c565b610826565b34801561026457600080fd5b506000546040516001600160a01b03909116815260200161012c565b34801561028c57600080fd5b506101a561029b366004611999565b61091a565b3480156102ac57600080fd5b506101226102bb366004611577565b60009081526004602052604090205490565b3480156102d957600080fd5b506101856102e8366004611577565b6109f1565b3480156102f957600080fd5b50610185610aee565b34801561030e57600080fd5b5061015561031d3660046119d7565b6001600160a01b03918216600090815260026020908152604080832093909416825291909152205460ff1690565b34801561035757600080fd5b506101a5610366366004611a05565b610b0e565b34801561037757600080fd5b506101a56103863660046115f0565b610b95565b60006001600160a01b0383166103fc5760405162461bcd60e51b815260206004820152602b60248201527f455243313135353a2062616c616e636520717565727920666f7220746865207a60448201526a65726f206164647265737360a81b60648201526084015b60405180910390fd5b5060009081526001602090815260408083206001600160a01b03949094168352929052205490565b60006001600160e01b03198216636cdb3d1360e11b148061045557506001600160e01b031982166303a24d0760e21b145b8061047057506301ffc9a760e01b6001600160e01b03198316145b92915050565b60606003805461048590611a6e565b80601f01602080910402602001604051908101604052809291908181526020018280546104b190611a6e565b80156104fe5780601f106104d3576101008083540402835291602001916104fe565b820191906000526020600020905b8154815290600101906020018083116104e157829003601f168201915b50505050509050919050565b6002600554141561055d5760405162461bcd60e51b815260206004820152601f60248201527f5265656e7472616e637947756172643a207265656e7472616e742063616c6c0060448201526064016103f3565b60026005556040516000906001600160a01b0383169034908381818185875af1925050503d80600081146105ad576040519150601f19603f3d011682016040523d82523d6000602084013e6105b2565b606091505b50509050806105f65760405162461bcd60e51b815260206004820152601060248201526f2a3930b739b332b9103330b4b632b21760811b60448201526064016103f3565b50506001600555565b6001600160a01b03851633148061061b575061061b853361031d565b6106825760405162461bcd60e51b815260206004820152603260248201527f455243313135353a207472616e736665722063616c6c6572206973206e6f74206044820152711bdddb995c881b9bdc88185c1c1c9bdd995960721b60648201526084016103f3565b61068f8585858585610c60565b5050505050565b606081518351146106fb5760405162461bcd60e51b815260206004820152602960248201527f455243313135353a206163636f756e747320616e6420696473206c656e677468604482015268040dad2e6dac2e8c6d60bb1b60648201526084016103f3565b6000835167ffffffffffffffff8111156107175761071761160d565b604051908082528060200260200182016040528015610740578160200160208202803683370190505b50905060005b84518110156107b85761078b85828151811061076457610764611aa9565b602002602001015185838151811061077e5761077e611aa9565b602002602001015161038b565b82828151811061079d5761079d611aa9565b60209081029190910101526107b181611ad5565b9050610746565b509392505050565b6000546001600160a01b0316331461081a5760405162461bcd60e51b815260206004820181905260248201527f4f776e61626c653a2063616c6c6572206973206e6f7420746865206f776e657260448201526064016103f3565b6108246000610e4e565b565b60006002600554141561087b5760405162461bcd60e51b815260206004820152601f60248201527f5265656e7472616e637947756172643a207265656e7472616e742063616c6c0060448201526064016103f3565b6002600555826108cd5760405162461bcd60e51b815260206004820152601b60248201527f5175616e746974792073686f756c6420626520706f736974697665000000000060448201526064016103f3565b6108db600680546001019055565b60006108e660065490565b905061090385828660405180602001604052806000815250610e9e565b61090d8184610fb0565b6001600555949350505050565b336001600160a01b03831614156109855760405162461bcd60e51b815260206004820152602960248201527f455243313135353a2073657474696e6720617070726f76616c20737461747573604482015268103337b91039b2b63360b91b60648201526084016103f3565b3360008181526002602090815260408083206001600160a01b03871680855290835292819020805460ff191686151590811790915590519081529192917f17307eab39ab6107e8899845ad3d59bd9653f200f220920489ca2b5937696c31910160405180910390a35050565b600081815260046020526040902054606090610a4f5760405162461bcd60e51b815260206004820152601f60248201527f55524920717565727920666f72206e6f6e6578697374656e7420746f6b656e0060448201526064016103f3565b60008281526007602052604081208054610a6890611a6e565b80601f0160208091040260200160405190810160405280929190818152602001828054610a9490611a6e565b8015610ae15780601f10610ab657610100808354040283529160200191610ae1565b820191906000526020600020905b815481529060010190602001808311610ac457829003601f168201915b5093979650505050505050565b6060604051806080016040528060578152602001611d8b60579139905090565b6001600160a01b038516331480610b2a5750610b2a853361031d565b610b885760405162461bcd60e51b815260206004820152602960248201527f455243313135353a2063616c6c6572206973206e6f74206f776e6572206e6f7260448201526808185c1c1c9bdd995960ba1b60648201526084016103f3565b61068f8585858585610fd4565b6000546001600160a01b03163314610bef5760405162461bcd60e51b815260206004820181905260248201527f4f776e61626c653a2063616c6c6572206973206e6f7420746865206f776e657260448201526064016103f3565b6001600160a01b038116610c545760405162461bcd60e51b815260206004820152602660248201527f4f776e61626c653a206e6577206f776e657220697320746865207a65726f206160448201526564647265737360d01b60648201526084016103f3565b610c5d81610e4e565b50565b8151835114610cc25760405162461bcd60e51b815260206004820152602860248201527f455243313135353a2069647320616e6420616d6f756e7473206c656e677468206044820152670dad2e6dac2e8c6d60c31b60648201526084016103f3565b6001600160a01b038416610ce85760405162461bcd60e51b81526004016103f390611af0565b33610cf78187878787876110f5565b60005b8451811015610de0576000858281518110610d1757610d17611aa9565b602002602001015190506000858381518110610d3557610d35611aa9565b60209081029190910181015160008481526001835260408082206001600160a01b038e168352909352919091205490915081811015610d865760405162461bcd60e51b81526004016103f390611b35565b60008381526001602090815260408083206001600160a01b038e8116855292528083208585039055908b16825281208054849290610dc5908490611b7f565b9250508190555050505080610dd990611ad5565b9050610cfa565b50846001600160a01b0316866001600160a01b0316826001600160a01b03167f4a39dc06d4c0dbc64b70af90fd698a233a518aa5d07e595d983b8c0526c8f7fb8787604051610e30929190611b97565b60405180910390a4610e46818787878787611201565b505050505050565b600080546001600160a01b038381166001600160a01b0319831681178455604051919092169283917f8be0079c531659141344cd1fd0a4f28419497f9722a3daafe3b4186f6b6457e09190a35050565b6001600160a01b038416610efe5760405162461bcd60e51b815260206004820152602160248201527f455243313135353a206d696e7420746f20746865207a65726f206164647265736044820152607360f81b60648201526084016103f3565b33610f1e81600087610f0f8861135d565b610f188861135d565b876110f5565b60008481526001602090815260408083206001600160a01b038916845290915281208054859290610f50908490611b7f565b909155505060408051858152602081018590526001600160a01b0380881692600092918516917fc3d58168c5ae7397731d063d5bbf3d657854427343f4c083240f7aacaa2d0f62910160405180910390a461068f816000878787876113a8565b60008281526007602090815260409091208251610fcf92840190611463565b505050565b6001600160a01b038416610ffa5760405162461bcd60e51b81526004016103f390611af0565b3361100a818787610f0f8861135d565b60008481526001602090815260408083206001600160a01b038a1684529091529020548381101561104d5760405162461bcd60e51b81526004016103f390611b35565b60008581526001602090815260408083206001600160a01b038b811685529252808320878503905590881682528120805486929061108c908490611b7f565b909155505060408051868152602081018690526001600160a01b03808916928a821692918616917fc3d58168c5ae7397731d063d5bbf3d657854427343f4c083240f7aacaa2d0f62910160405180910390a46110ec8288888888886113a8565b50505050505050565b6001600160a01b03851661117c5760005b835181101561117a5782818151811061112157611121611aa9565b60200260200101516004600086848151811061113f5761113f611aa9565b6020026020010151815260200190815260200160002060008282546111649190611b7f565b90915550611173905081611ad5565b9050611106565b505b6001600160a01b038416610e465760005b83518110156110ec578281815181106111a8576111a8611aa9565b6020026020010151600460008684815181106111c6576111c6611aa9565b6020026020010151815260200190815260200160002060008282546111eb9190611bc5565b909155506111fa905081611ad5565b905061118d565b6001600160a01b0384163b15610e465760405163bc197c8160e01b81526001600160a01b0385169063bc197c81906112459089908990889088908890600401611bdc565b6020604051808303816000875af1925050508015611280575060408051601f3d908101601f1916820190925261127d91810190611c3a565b60015b61132d5761128c611c57565b806308c379a014156112c657506112a1611c73565b806112ac57506112c8565b8060405162461bcd60e51b81526004016103f391906115dd565b505b60405162461bcd60e51b815260206004820152603460248201527f455243313135353a207472616e7366657220746f206e6f6e20455243313135356044820152732932b1b2b4bb32b91034b6b83632b6b2b73a32b960611b60648201526084016103f3565b6001600160e01b0319811663bc197c8160e01b146110ec5760405162461bcd60e51b81526004016103f390611cfd565b6040805160018082528183019092526060916000919060208083019080368337019050509050828160008151811061139757611397611aa9565b602090810291909101015292915050565b6001600160a01b0384163b15610e465760405163f23a6e6160e01b81526001600160a01b0385169063f23a6e61906113ec9089908990889088908890600401611d45565b6020604051808303816000875af1925050508015611427575060408051601f3d908101601f1916820190925261142491810190611c3a565b60015b6114335761128c611c57565b6001600160e01b0319811663f23a6e6160e01b146110ec5760405162461bcd60e51b81526004016103f390611cfd565b82805461146f90611a6e565b90600052602060002090601f01602090048101928261149157600085556114d7565b82601f106114aa57805160ff19168380011785556114d7565b828001600101855582156114d7579182015b828111156114d75782518255916020019190600101906114bc565b506114e39291506114e7565b5090565b5b808211156114e357600081556001016114e8565b6001600160a01b0381168114610c5d57600080fd5b6000806040838503121561152457600080fd5b823561152f816114fc565b946020939093013593505050565b6001600160e01b031981168114610c5d57600080fd5b60006020828403121561156557600080fd5b81356115708161153d565b9392505050565b60006020828403121561158957600080fd5b5035919050565b6000815180845260005b818110156115b65760208185018101518683018201520161159a565b818111156115c8576000602083870101525b50601f01601f19169290920160200192915050565b6020815260006115706020830184611590565b60006020828403121561160257600080fd5b8135611570816114fc565b634e487b7160e01b600052604160045260246000fd5b601f8201601f1916810167ffffffffffffffff811182821017156116495761164961160d565b6040525050565b600067ffffffffffffffff82111561166a5761166a61160d565b5060051b60200190565b600082601f83011261168557600080fd5b8135602061169282611650565b60405161169f8282611623565b83815260059390931b85018201928281019150868411156116bf57600080fd5b8286015b848110156116da57803583529183019183016116c3565b509695505050505050565b600067ffffffffffffffff8311156116ff576116ff61160d565b604051611716601f8501601f191660200182611623565b80915083815284848401111561172b57600080fd5b83836020830137600060208583010152509392505050565b600082601f83011261175457600080fd5b611570838335602085016116e5565b600080600080600060a0868803121561177b57600080fd5b8535611786816114fc565b94506020860135611796816114fc565b9350604086013567ffffffffffffffff808211156117b357600080fd5b6117bf89838a01611674565b945060608801359150808211156117d557600080fd5b6117e189838a01611674565b935060808801359150808211156117f757600080fd5b5061180488828901611743565b9150509295509295909350565b6000806040838503121561182457600080fd5b823567ffffffffffffffff8082111561183c57600080fd5b818501915085601f83011261185057600080fd5b8135602061185d82611650565b60405161186a8282611623565b83815260059390931b850182019282810191508984111561188a57600080fd5b948201945b838610156118b15785356118a2816114fc565b8252948201949082019061188f565b965050860135925050808211156118c757600080fd5b506118d485828601611674565b9150509250929050565b600081518084526020808501945080840160005b8381101561190e578151875295820195908201906001016118f2565b509495945050505050565b60208152600061157060208301846118de565b60008060006060848603121561194157600080fd5b833561194c816114fc565b925060208401359150604084013567ffffffffffffffff81111561196f57600080fd5b8401601f8101861361198057600080fd5b61198f868235602084016116e5565b9150509250925092565b600080604083850312156119ac57600080fd5b82356119b7816114fc565b9150602083013580151581146119cc57600080fd5b809150509250929050565b600080604083850312156119ea57600080fd5b82356119f5816114fc565b915060208301356119cc816114fc565b600080600080600060a08688031215611a1d57600080fd5b8535611a28816114fc565b94506020860135611a38816114fc565b93506040860135925060608601359150608086013567ffffffffffffffff811115611a6257600080fd5b61180488828901611743565b600181811c90821680611a8257607f821691505b60208210811415611aa357634e487b7160e01b600052602260045260246000fd5b50919050565b634e487b7160e01b600052603260045260246000fd5b634e487b7160e01b600052601160045260246000fd5b6000600019821415611ae957611ae9611abf565b5060010190565b60208082526025908201527f455243313135353a207472616e7366657220746f20746865207a65726f206164604082015264647265737360d81b606082015260800190565b6020808252602a908201527f455243313135353a20696e73756666696369656e742062616c616e636520666f60408201526939103a3930b739b332b960b11b606082015260800190565b60008219821115611b9257611b92611abf565b500190565b604081526000611baa60408301856118de565b8281036020840152611bbc81856118de565b95945050505050565b600082821015611bd757611bd7611abf565b500390565b6001600160a01b0386811682528516602082015260a060408201819052600090611c08908301866118de565b8281036060840152611c1a81866118de565b90508281036080840152611c2e8185611590565b98975050505050505050565b600060208284031215611c4c57600080fd5b81516115708161153d565b600060033d1115611c705760046000803e5060005160e01c5b90565b600060443d1015611c815790565b6040516003193d81016004833e81513d67ffffffffffffffff8160248401118184111715611cb157505050505090565b8285019150815181811115611cc95750505050505090565b843d8701016020828501011115611ce35750505050505090565b611cf260208286010187611623565b509095945050505050565b60208082526028908201527f455243313135353a204552433131353552656365697665722072656a656374656040820152676420746f6b656e7360c01b606082015260800190565b6001600160a01b03868116825285166020820152604081018490526060810183905260a060808201819052600090611d7f90830184611590565b97965050505050505056fe68747470733a2f2f62616679626569676c7a7a6c3267337933363279797a626e75746c33646b75327134336f79626166626e716179636d6276696b71716c363775736d2e697066732e696e667572612d697066732e696fa2646970667358221220c21d19a969a69b6adb3c7258f742501abba51ecb18933513a6101da97a32342964736f6c634300080a0033",
  "linkReferences": {},
  "deployedLinkReferences": {}
}